:109C3800EF1FAA0670011E4A600B7D7CEDD39400CD
:059C480040EE1D80F755
:019C4D0022F4
:0B9D2E00EFD394004004001F80F622D9
:108844004E000DFFFFFFFFFFFFFFFFFFFFFFFFFFD6
:10885400FFC182C101C10041000B004100211E4142
:10886400000C0141000800C18341000501410000E2
:108874000141001E0041001D00410020014100098A
:1088840001420003000041001C00410001004600B9
:10889400471107170C01004C002E000000010000D6
:1088A4000000000300004C003B000000161E000006
:0588B4000000071E009A
:105FB900E4900054F0A304F0129D65785E7C007DA6
:105FC900017B017A0079477E007F061265F8128FFE
:105FD9000D129CF2129D39D2AF129CCF7F1E7E000A
:105FE900129C387F201299A290000BEFF07F2112AA
:105FF90099A2900021EFF07F271299A2EF24FF9236
:106009000312776F7F221299A2900009EFF07F2384
:106019001299A2900020EFF07F241299A290001CFF
:10602900EFF07F251299A2900005EFF07F261299D3
:10603900A2900000EFF07F281299A290000CEFF0D7
:106049007F341299A2900002EFF07F351299A29045
:106059000053EFF07F361299A290000AEFF07F29E2
:106069001299A290003EEFF07F2A1299A290003F68
:10607900EFF07F311299A2900044EFF07F3212992C
:10608900A2900045EFF07F331299A2900007EFF03C
:10609900129778E4900001F0128A651279D2900083
:1060A9000CE06401705520002520A417900054E0ED
:1060B900B40110E4F07FE5129D70B2007F0A7E0002
:1060C900129A9B30A46B900054E07065802920A43B
:1060D9001A900055E0B40113E4900054F07FE512E2
:1060E9009D70B2007F0A7E00129A9B30A4439000F3
:1060F90055E0703D90005404F0802F90000CE0B4FE
:10610900021F20002C7FE5129D70B200900008E06C
:10611900B4011E7FE87E03129C38E4900008F080E9
:106129001090000CE0700A3000077FE5129D70B2F4
:106139000078567C007D017B017A0079477E007FDB
:10614900061265F87B017A00792E90005C12679639
:106159007A00790D90005F12679612520290004BF7
:10616900E07051A3E0704D90004AE06408701F9000
:106179000005E0B4011878567C007D017B017A00A6
:1061890079477E007F061265F8122073801D900002
:1061990000E0B4011F785C7C007D017B017A007905
:1061A900477E007F061265F81293967B017A007983
:1061B90003126E10126FFA129A76123DF81293D4E6
:1061C9001245FA900007E06401600302625E9000E4
:1061D9003EE0FF90004AE0FED39F5030EEB5070D38
:1061E90090003FE0FF90004BE0C39F501F90004498
:1061F900E0FF90004AE0FEC39F4011EE6F703B90B4
:106209000045E0FF90004BE0D39F502EE490000C36
:10621900F0900005F0900000F030B60302609C7F1A
:106229005E7E01129C3830B60302609C90000874AF
:1062390001F090000C04F002609C90000AE09000CC
:106249000CF0900002E0900005F0900053E09000FF
:1062590000F002609C90000AE090000CF0900002AF
:10626900E0900005F0900053E0900000F002609C7F
:079D6500C290C291C29222DC
:0699E000C290C291D2907A
:1099E600E4FEC291EF1392920000D2910000EFC301
:0799F60013FF0EEEB408EBB5
:0199FD002247
:1094F000E4FFFED2910000C2910000A292E433FD8D
:10950000EEC313FEEDC433333354804EFE0FEFB47D
:1095100008E1EE5470C4540F75F00AA4FFEE540F26
:029520002FFF1B
:019522002226
:0C9D21001299E01294F0C290C291C2921C
:019D2D002213
:0397C100A3E0FD25
:1097C400E4ED75F00A84C454F0FEED75F00A84E506
:0F97D400F04EFC1299E0AF041299E6C290C291D8
:0197E3002263
:10944B007F8D129D21900068EFF07F89129D21A3E3
:10945B00EFF07F87129D21A3EFF07F85129D21A353
:10946B00EFF07F83129D21A3EFF07F81129D21A34B
:08947B00EFF07B017A00796833
:0194830022C6
:108EE90078477C007D017E007F061265F890004975
:108EF9007401F0785E7C00FDFB7A0079477E007F83
:048F0900061265F8EF
:108F0D00E4FD7F8E1297C490005EE0FD7F8C12977A
:108F1D00C47F881297C17F861297C1A3E0FD7F841D
:108F2D001297C4A3E0FD7F821297C4A3E0FD7F805A
:0A8F3D001297C47D807F8E0297C456
:108F470078577C007D017B017A0079477E007F0698
:098F57001265F890005D7401F050
:108F600090005DE0B40113900057E0B46304E4F0B6
:108F70008019900057E004F08011900057E07005D0
:108F80007463F08006900057E014F0E490005CF009
:108F9000785E7C007D017B017A007957FE7F0612A6
:058FA00065F8028F0DD1
:1090600078577C007D017B017A0079477E007F067E
:099070001265F890005D7401F036
:1090790090005DE0B40111900058E0B40C02E4F0F6
:10908900900058E004F08010900058E0B401037497
:109099000DF0900058E014F0E490005CF0785E7CEC
:1090A900007D017B017A007957FE7F061265F8027F
:0290B9008F0D19
:107C290078577C007D017B017A0079477E007F06C9
:097C39001265F890005D7401F081
:107C420090005DE064017069900058E012679F7CCB
:107C520079017C8F027C79037C84047C79057C84A5
:107C6200067C79077C79087C84097C790A7C840B00
:107C72007C790C00007D1E900059E0B41F02E4F0F4
:107C82008027900059E0B41E02E4F0801C90005757
:107C9200E05403700B900059E0B41D02E4F0800937
:107CA200900059E0B41C02E4F0900059E004F08026
:107CB2006B900058E012679F7CE2017CFA027CE242
:107CC200037CEE047CE2057CEE067CE2077CE208A3
:107CD2007CEE097CE20A7CEE0B7CE20C00007D1E4D
:107CE200900059E0B401037420F0802A900059E01A
:107CF200B40103741FF0801E900057E05403700C0F
:107D0200900059E0B40103741EF0800A900059E01B
:107D1200B40103741DF0900059E014F0E490005C8B
:107D2200F0785E7C007D017B017A007957FE7F0648
:067D32001265F8028F0D3E
:1091160078577C007D017B017A0079477E007F06C7
:099126001265F890005D7401F07F
:10912F0090005DE0B4010E90005AE004F0E0B41836
:10913F0013E4F0800F90005AE070037418F0900061
:10914F005AE014F0E490005CF0785E7C007D017BC7
:0E915F00017A007957FE7F061265F8028F0D27
:10916D0078577C007D017B017A0079477E007F0670
:09917D001265F890005D7401F028
:1091860090005DE0B4010E90005BE004F0E0B43CBA
:1091960013E4F0800F90005BE07003743CF09000E5
:1091A6005BE014F0E490005CF0785E7C007D017B6F
:0E91B600017A007957FE7F061265F8028F0DD0
:1096180090005CE0B4010E900059E004F0E0B4184A
:1096280013E4F0800F900059E070037418F0900074
:1096380059E014F0E490005BF07B017A007956223F
:1096480090005CE0B4010E90005AE004F0E0B43CF5
:1096580013E4F0800F90005AE07003743CF090001F
:109668005AE014F0E490005BF07B017A007956220E
:103DF800E4900056F03095030245F97F147E0012D6
:103E08009C383095030245F990001CE014700302B9
:103E180041CF147003024359240260030245A09065
:103E28000001E07012900056E0700C129CA51299E7
:103E3800819000567401F020B6417F287E00129CC4
:103E48003820B637900001E024FE60121460141484
:103E5800601614601824047017129B998012129B24
:103E6800B5800D129BD18008129BED8003129B7CBC
:103E7800E4900001F0900056F080202095617F5A70
:103E88007E00129C38209557900001E004F0E0B4C1
:103E98000612E4F0900056F0129B7C129960129979
:103EA8003F0245A0900001E024FE601514601A143A
:103EB800601F14602424047026129960129B2580C8
:103EC8001E129B99129B428016129BB5129B5F8013
:103ED8000E129BD1129C208006129BED129A58302C
:103EE800960302401D7F5A7E00129C3830960302CA
:103EF800401D900001E024FE604B147003023F8BCC
:103F0800147003023FBD147003023FEE24046003E3
:103F180002401D129B99128F4712944B78477C00E0
:103F28007D017E007F061265F8786E7C007D017B3E
:103F3800017A0079477E007F061265F812936012B5
:103F48009B2502401D129BB512906012944B128E55
:103F5800E9786E7C007D017B017A0079477E007FDD
:103F6800061265F8129593786E7C007D017B017AC4
:103F78000079477E007F061265F81295C4129B42AD
:103F880002401D129BD1127C2912944B78477C0069
:103F98007D017E007F061265F8786E7C007D017BCE
:103FA800017A0079477E007F061265F81295C412DF
:103FB8009B5F02401D129BED12911612944B78479D
:103FC8007C007D017E007F061265F8786E7C007D9E
:103FD800017B017A0079477E007F061265F8128915
:103FE800E6129C20802F129B7C12916D12944B78C4
:103FF800477C007D017E007F061265F8786E7C00A4
:104008007D017B017A0079477E007F061265F812F0
:104018008E89129A583097030245A07F647E001259
:104028009C383097030245A0900001E024FE6063AD
:104038001470030240F114700302413B1470030230
:104048004185240460030245A0129B9978577C009F
:104058007D017B017A0079477E007F061265F8E4CE
:1040680090005DF0128F6012944B78477C007D01C0
:104078007E007F061265F8786E7C007D017B017AF0
:104088000079477E007F061265F8129360129B251F
:104098000245A0129BB578577C007D017B017A0010
:1040A80079477E007F061265F8E490005DF0129073
:1040B8007912944B128EE9786E7C007D017B017A2F
:1040C8000079477E007F061265F8129593786E7C1A
:1040D800007D017B017A0079477E007F061265F832
:1040E8001295C4129B420245A0129BD178577C00BE
:1040F8007D017B017A0079477E007F061265F8E42E
:1041080090005DF0127C4212944B78477C007D0150
:104118007E007F061265F8786E7C007D017B017A4F
:104128000079477E007F061265F81295C4129B5FDE
:104138000245A0129BED78577C007D017B017A0037
:1041480079477E007F061265F8E490005DF01291D1
:104158002F12944B78477C007D017E007F06126504
:10416800F8786E7C007D017B017A0079477E007FBC
:10417800061265F81289E6129C200245A0129B7C63
:1041880078577C007D017B017A0079477E007F06A5
:104198001265F8E490005DF012918612944B78470E
:1041A8007C007D017E007F061265F8786E7C007DBC
:1041B800017B017A0079477E007F061265F8128E2E
:1041C80089129A580245A020B6217F5A7E00129C77
:1041D8003820B617900001E024FE60090470091227
:1041E8009BED024382129B7C0243822095367F5AC4
:1041F8007E00129C3820952C900001E004F0E0B479
:10420800030CE4F0900056F012984D0245A090007F
:1042180001E024FE600804700B12980780061298CB
:10422800FB12982A2096757F5A7E00129C38209699
:104238006B900001E024FE60340470601298FB1259
:10424800911612944B78477C007D017E007F061200
:1042580065F8786E7C007D017B017A0079477E00E5
:104268007F061265F8128CCA129807802F12984D93
:1042780012916D12944B78477C007D017E007F0679
:104288001265F8786E7C007D017B017A0079477EA3
:10429800007F061265F8128D4312982A30970302A0
:1042A80045A07F647E00129C383097030245A09099
:1042B8000001E024FE60500460030245A01298FB50
:1042C80078577C007D017B017A0079477E007F0664
:1042D8001265F8E490005DF012912F12944B784724
:1042E8007C007D017E007F061265F8786E7C007D7B
:1042F800017B017A0079477E007F061265F8128CEF
:10430800CA1298070245A012984D78577C007D0183
:104318007B017A0079477E007F061265F8E49000F9
:104328005DF012918612944B78477C007D017E00E7
:104338007F061265F8786E7C007D017B017A007932
:10434800477E007F061265F8128D4312982A0245AF
:10435800A020B6327F287E00129C3820B628900014
:1043680001E024FE600C14600E2402700D129AB154
:104378008008129ACE8003129AEBE4900001F09024
:104388000056F00245A020953E7F5A7E00129C38C8
:10439800209534900001E004F0E0B40408E4F01241
:1043A8009AEB0245A0900001E024FE600C14601115
:1043B800240270131299FE800E129AB1129A1C8070
:1043C80006129ACE129A3A3096030244927F647E7D
:1043D80000129C38309603024492900001E024FEBB
:1043E800603C14607624026003024492129AB1126F
:1043F8008F4712944B78477C007D017E007F061220
:1044080065F8786E7C007D017B017A0079477E0033
:104418007F061265F8128B5F1299FE024492129A77
:10442800CE12906012944B128EE9786E7C007D015A
:104438007B017A0079477E007F061265F8128BD8D7
:10444800786E7C007D017B017A0079477E007F06CB
:104458001265F8128C51129A1C802F129AEB127C5A
:104468002912944B78477C007D017E007F061265F7
:10447800F8786E7C007D017B017A0079477E007FA9
:10448800061265F8128C51129A3A3097030245A029
:104498007F647E00129C383097030245A09000018B
:1044A800E024FE6057147003024559240260030299
:1044B80045A0129AB178577C007D017B017A00797A
:1044C800477E007F061265F8E490005DF0128F6069
:1044D80012944B78477C007D017E007F061265F8B8
:1044E800786E7C007D017B017A0079477E007F062B
:1044F8001265F8128B5F1299FE0245A0129ACE78C7
:10450800577C007D017B017A0079477E007F061287
:1045180065F8E490005DF012907912944B128EE9E0
:10452800786E7C007D017B017A0079477E007F06EA
:104538001265F8128BD8786E7C007D017B017A00B9
:1045480079477E007F061265F8128C51129A1C80FA
:1045580047129AEB78577C007D017B017A007947F6
:104568007E007F061265F8E490005DF0127C42122E
:10457800944B78477C007D017E007F061265F878B1
:104588006E7C007D017B017A0079477E007F0612F0
:1045980065F8128C51129A3A900001E06003023ECD
:1045A80010900056E06003023E1090001CE0640288
:1045B800703F900047E0FFA3E0FDA3E0FB12562CFC
:1045C8007F647E00129C381283677F647E00129C91
:1045D80038124DA17F647E00129C3878687C007D7B
:1045E800017B017A0079477E007F061265F8126226
:0145F8007949
:0145F900229F
:079D1300D294129D1AD293B5
:079D1A000000000000002220
:0A9D3900D294129D1AD293029D1AD3
:089D4D00129D13C294029D1A3D
:0A9D4300C294129D15D294029D1ADD
:0B97E40012972B1297EFAF0512972B86
:1097EF00E4FFD293129D1A309409EFC394FA5003F9
:0897FF000F80F4C293029D1AD1
:089D5500129D13C293029D1A36
:10972B00E4FEC293129D1AEF30E704D2948002C27A
:10973B0094EF25E0FF129D150EEEB408E5C29312CF
:07974B009D1AD294029D1A41
:10979D00C293129D1AD294129D1AE4FED293129D79
:1097AD001AEF25E0FF3094010FC293129D1A0EEEB1
:0397BD00B408E904
:0197C0002286
:109C9000AC07129D4D7FA012972B1297EFAF0412C5
:059CA00097E4029D4362
:0299A200AD070F
:1099A400129D4D7FA01297E4129D4D7FA112972B1B
:0C99B4001297EF12979D129D55129D43D3
:0199C0002284
:10948400E4FED2B7C2B77F50129D2ED2B77E007FC2
:109494001430B70AEF1FAC0670011E4C70F37E0047
:1094A4007F6420B70AEF1FAC0670011E4C70F37F77
:0694B40005129D2ED2B747
:0194BA00228F
:109C0800C204C2B700D2B77F01129D2EA2B7920438
:079C18007F05129D2EA2043E
:019C1F002222
:10952300E490006DF090006C04F0129C08E433FCAE
:10953300C43333335480FE90006DE0C3134EF09078
:10954300006CE004F0E0D3940840DF90006DE0FF8E
:0195530022F5
:02930600A907B5
:109308007F01E9139204E9C313F930041BC2B70BB8
:10931800BB00000BBB0000D2B77A007B08EB1B70C8
:10932800011AEB4A70F7801BC2B77A007B08EB1B67
:1093380070011AEB4A70F7D2B70BBB00010A0BBBDE
:0893480000010A0FEFB409BA9D
:0193500022FA
:109CCF00C2AF1294847FCC1293067F44129306D2B4
:029CDF00AF22B2
:0692B800900068126796A9
:1092BE00C2AF1294847FCC1293067FBE1293061215
:1092CE00952390006BEFF0129523D2AFEFC454F0BC
:1092DE00FF90006BE0C4540F4FFF9000681267764A
:1092EE00EF1266B990006BE0540FFF9000681267A2
:0892FE0076900001EF0266CB3F
:100026002D0020002E00430032300053756E2E0046
:100036004D6F6E2E00547565732E005765642E0045
:100046005468752E004672692E005361742E002086
:1000560020202000D0A1BAAE00B4F3BAAE00C1A2EF
:10006600B4BA00D3EACBAE00BEAAD5DD00B4BAB7A7
:10007600D600C7E5C3F700B9C8D3EA00C1A2CFC40A
:1000860000D0A1C2FA00C3A2D6D600CFC4D6C10002
:10009600D0A1CAEE00B4F3CAEE00C1A2C7EF00B405
:1000A600A6CAEE00B0D7C2B600C7EFB7D600BAAE42
:1000B600C2B600CBAABDB500C1A2B6AC00D0A1D1D4
:1000C600A900B4F3D1A900B6ACD6C100B3CFA6003F
:1000D600B4BABDDA00D4AACFFCBDDA00C1FACCA707
:1000E600CDB700B6CBCEE7BDDA00D6D0D4AABDDAFE
:1000F60000D6D0C7EFBDDA00D6D8D1F4BDDA00C03D
:10010600B0B0CBBDDA0020202020202000D4AAB534
:10011600A900C6F8CFF3BDDA00C7E9C8CBBDDA003F
:10012600B0AEB6FAC8D500B8BEC5AEBDDA00D6B216
:10013600CAF7BDDA00CFFBB7D1D5DFC8A8C8D5004E
:10014600C6F8CFF3C8D5002020202020202020206C
:100156002000D3DEC8CBBDDA00B5D8C7F2C8D500BB
:10016600C0CDB6AFBDDA00CAC0BDE7CEA2D0A6C824
:10017600D500BBA4CABFBDDA00CEDED1CCC8D5003F
:10018600B6F9CDAFBDDA00CAC0BDE7BBB7BEB3C8CE
:10019600D500B7B4B6BEC6B7C8D500BDA8B5B3BD01
:1001A600DA00BDA8BEFCBDDA00BFB9D5BDCAA4C081
:1001B600FB00BDCCCAA6BDDA00BEC5D2BBB0CB0023
:1001C600B0AED1C0C8D5002020202020202020207D
:1001D60020202000B9FAC7ECBDDA00C1B8CAB3C8FE
:1001E600D500CDF2CAA5D2B900202020202020209B
:1001F6002020202020202000B9E2B9F7BDDA00B483
:10020600F3D1A7C9FABDDA00B8D0B6F7BDDA002037
:100216002020202020202000B0ACD7CCB2A1C8D509
:1002260000C6BDB0B2D2B900CAA5B5AEBDDA0020CF
:1002360020202020202020202020202000B800D0B0
:10024600C100C8C900B9EF00BCD700D2D200B1FBCB
:1002560000B6A100CEEC00BCBA00B3BD00CBC8000E
:10026600CEE700CEB400C9EA00D3CF00D0E700BA8B
:10027600A500D7D300B3F300D2FA00C3AE00C4EA98
:1002860000C8F200202000D2BB00B6FE00C800CB9A
:10029600C400CEE500C1F900C6DF00B0CB00BEC584
:1002A60000CAAE00B6AC00C0B000D4C200B3F500C0
:1002B600D8A50053455400414C41524D0006150443
:1002C6001305140413051406150716071607160852
:1002D6001707160716051404130514051405140547
:1002E6001407170717071708170716071605140424
:1002F6001306150514061506150717081708170817
:100306001707160716061404130615051406150610
:1003160016071708170817092208170716061504DF
:1003260013051404140514051407160717071708F0
:1003360017071607150514041205140514051405E8
:1003460014071707170717081707160716051404C3
:1003560013061505140514061507170717081708B9
:1003660017071607160614041306150514061506B0
:10037600160717081708170922081707160615047F
:100386001305140414051405140716071707160891
:100396001707160715051404120514041405140589
:1003A6001407170717071708170716071605140463
:1003B6001306150514051406150717071708170859
:1003C6001707160716061404130615051406150650
:1003D6001607170817081708220817071606150420
:1003E6001305140414051405140716071707160831
:1003F6001707160715051404120514041405140529
:100406001407160717071708170716071605140403
:1004160013061505140514061507170717081708F8
:1004260017071607160614041306150514061506EF
:1004360016071708170817082208160716061404C1
:1004460013051404130514051407160717071608D1
:1004560017071607150514031205140414051405C9
:1004660014071607170717081707160716051404A3
:10047600130514051405140615071707170817089A
:100486001707160716051404130615051406150690
:100496001507170817081708220816071606140462
:1004A6001305140413051405140616071607160873
:1004B6001707160715051403120514041405140569
:1004C6001407160717071708170716071505140444
:1004D600130514051405140615071707170717083B
:1004E6001707160716051404130615051406150630
:1004F6001507170817081708220816071606140402
:100506001305140413051405140616071607160812
:100516001707160615051403120514041405140509
:1005260014071607170717081707160715051404E3
:1005360012051405140514051407170717071708DD
:1005460017071607160514041306150514061506CF
:1005560015071708170817081707160716061404AD
:1005660013051404130514051506160716071608B1
:1005760017071606150514031205140414051505A8
:100586001507160717071708170716071505140482
:10059600120514051405150515071707170717087B
:1005A600170716071605140413061505140615066F
:1005B600150717081708170817071607160614044D
:1005C6001305140413051405150616071607160851
:1005D6001707160615051403120514041405150548
:1005E6001507160717071708170716071505140422
:1005F600120514051405150515071707170717081B
:10060600170716071605140413061505140515060F
:1006160015071707170817081707160716061404ED
:1006260013051404130514051506160716071608F0
:1006360017071606150514031205140414051505E7
:1006460015071607170717081707160715051404C1
:1006560012051405140515051507170717071708BA
:1006660017071607160514041305150514051506B0
:10067600150717071708170817071607160614048D
:100686001305140413051405150616071607160890
:100696001707160615051403120514041405140588
:1006A6001507160717071608170716071505140462
:1006B600120514041405150515071707170717085B
:1006C600170716071605140413061505140515064F
:1006D600150717071708170817071607160614042D
:1006E6001305140413051405150616071607160731
:1006F6001707160615051403120514041305140529
:100706001507160717071608170716071505140401
:1007160012051404140515051507160717071708FB
:1007260017071607160514041306150514051506EE
:1007360015071707170817081707160716061404CC
:1007460013051404130514051406160716071607D1
:1007560017071506150513031205140413051405CA
:1007660015061607160716081707160715051403A4
:10077600120514041405150515071607170717089B
:100786001707160716051404130514051405150690
:10079600150717071707170817071607160514046E
:1007A6001305140413051405140616071607160771
:1007B600170715061505130312051404130514056A
:1007C6001506160716071608170716071505140344
:1007D600120514041405150515071607170717083B
:1007E6001707160716051404130514051405150531
:1007F600150717071707170817071607160514040E
:100806001305140413051405140616071607160710
:100816001707150615051303120514041305140509
:1008260015061607160716081707160615051403E4
:1008360012051404140515051507160717071708DA
:1008460017071607150514041305140514051505D1
:1008560015071707170717081707160716051404AD
:1008660013051404130514051406160716071607B0
:1008760016061506150513031205140413051405AB
:100886001506160716071608170716061505140384
:10089600120514041405150515071607170717087A
:1008A6001707160715051404120514051405150572
:1008B600150717071707170817071607160514044D
:1008C6001305140413051405140616071607160750
:1008D600160615061505130312051404130514054B
:1008E6001506160716071608170716061505140324
:1008F600120514041405150515071607170717081A
:100906001707160715051404120514051405150511
:1009160015071707170717081707160716051404EC
:1009260013051404130414051406160616071607F1
:1009360016061506150513031205140413051405EA
:1009460015061607160716081707160615051403C3
:1009560012051404140514051507160717071608BB
:1009660017071607150514041205140514051505B1
:10097600150717071707170817071607160514048C
:100986001305140413041405140616061607160791
:10099600160615061505130312051404130514058A
:1009A6001506160716071607170716061505140364
:1009B600120514041405140515071607170716085B
:1009C6001707160715051404120514041405150552
:1009D600150716071707170817071607160514042D
:1009E6001305140413041405140616061607160731
:1009F600160615061505130312051404130514052A
:100A06001506160716071607170716061505140303
:100A160012051404130514051506160717071608FC
:100A260017071607150514041205140414051505F1
:100A360015071607170717081707160716051404CC
:100A460013051404130414051406160616071607D0
:100A560016061506150513031205140413051405C9
:100A660014061607160716071707150615051403A5
:100A7600120514041305140515061607160716089D
:100A86001707160715051403120514041405150592
:100A9600150716071707170817071607160514046C
:100AA6001304130413041405140616061606160773
:100AB600160615061504130312051404130514056A
:100AC6001406160716071607170715061505130346
:100AD600120514041305140515061607160716083D
:100AE6001707160715051403120514041405150532
:100AF600150716071707170817071607160514040C
:100B06001304130413041404140616061606160713
:100B16001606150615041303120514041305140509
:100B260014061607160716071707150615051303E5
:100B360012051404130514051506160716071608DC
:100B460017071606150514031205140414051505D2
:100B560015071607170717081707160715051404AC
:100B660013041304130414041406160616061607B3
:100B760016061506150413031205140413051405A9
:100B86001406160716071607160615061505130387
:100B9600120514041305140515061607160716087C
:100BA6001707160615051403120514041405150572
:100BB600150716071707170817071607150514044C
:100BC6001204130413041404140616061606160754
:100BD6001606150615041303120514041305140549
:100BE6001406160616071607160615061505130328
:100BF600120514041305140515061607160716081C
:100C06001707160615051403120514041405150511
:100C16001507160717071708170716071504AE5303
:100C26000A57485526BD0D26500D954446AAB905C6
:100C36006A4D09AD4224AEB604AE4A6A4DBE0A4DAF
:100C4600520D25465D52BA0B544E0D6A43296D3737
:100C5600095B4B749BC10497540A4B485B25BC0641
:100C6600A55006D4454ADAB802B64D09574224972C
:100C7600B704974A664B3E0D4A510EA54656D4BA5E
:100C860005AD4E02B644393738092E4B7C96BF0C5B
:100C960095530D4A486DA53B0B554F056A454AAD20
:100CA600B9025D4D092D422C95B60A954A7B4ABD7F
:100CB60006CA510B5546555ABB04DA4E0A5B4335F4
:100CC6002BB8052B4C8A953F0E955206AA487AD525
:100CD6003C0AB54F04B6454A57390A574D052642D0
:100CE6003E93350D954975AABE056A51096D465460
:100CF600AEBB04AD4F0A4D434D26B70D254B8D5265
:100D0600BF0B54520B6A47696D3C095B50049B4507
:100D16004A4BB90A4B4DAB25C206A55406D4496ABF
:100D2600DA3D0AB6510937465497BB04974F064B2E
:100D36004436A5370EA54A86B2BF05AC530AB64758
:100D46005936BC092E500C96454D4AB80D4A4C0DE5
:100D5600A54125AAB6056A497AADBD025D52092D9F
:100D6600475C95BA0A954E0B4A434B55370AD54A06
:100D7600955ABF04BA530A5B48652BBC052B500A2B
:100D86009345474AB906AA4C0AD54124DAB604B6B1
:100D96004A69573D0A4E510D26465E933A0D534D0C
:100DA60005AA4336B537096D4BB4AEBF04AD530A39
:100DB6004D486D25BC0D254F0D52445DAA380B5A82
:100DC6004C056D4124ADB6049B4A7A4BBE0A4B5185
:100DD6000AA5465B52BA06D24E0ADA42355B370995
:100DE600374B8497C1049753064B4866A53C0EA51E
:100DF6004F06B2444AB6380AAE4C092E423C9735E5
:100E06000C96497D4ABD0D4A510DA54555AABA0510
:100E16006A4E0A6D43452EB7052D4B8A95BF0A9536
:100E2600530B4A476B553B0AD54F055A454A5D3821
:100E36000A5B4C052B423A93B60693497729BD06C1
:100E4600AA510AD54654DABA04B64E0A574345277C
:100E5600380D264A001F3B5A7897B5D4F301110185
:100E660030014E00030306010406020500030500D7
:100E7600003FFC5FFA6FF6700E700E700E700E700B
:100E86000E700E700E700E700E600640020000406E
:100E9600026006700E700E700E700E700E700E7080
:100EA6000E700E700E6FF65FFA3FFC000000000039
:100EB600000020006000E000E000E000E000E0004C
:100EC600E000E000E000E0006000200000002000FC
:100ED6006000E000E000E000E000E000E000E0008C
:100EE600E000E000E00060002000000000000000DC
:100EF600003FFC1FFA0FF6000E000E000E000E005B
:100F06000E000E000E000E000E00061FFA3FFC5FDC
:100F1600F860007000700070007000700070007063
:100F260000700070006FF85FFC3FFE0000000000DC
:100F3600007FFC3FFA1FF6000E000E000E000E00AA
:100F46000E000E000E000E000E00061FFA3FFC1FDC
:100F5600FA0006000E000E000E000E000E000E0037
:100F66000E000E000E1FF63FFA7FFC000000000088
:100F76000040026006700E700E700E700E700E70DD
:100F86000E700E700E700E700E60065FFA3FFC1F3C
:100F9600FA0006000E000E000E000E000E000E00F7
:100FA6000E000E000E000E000600020000000000FB
:100FB600003FFC5FF86FF07000700070007000700A
:100FC60000700070007000700060005FF83FFC1F4A
:100FD600FA0006000E000E000E000E000E000E00B7
:100FE6000E000E000E0FF61FFA3FFC000000000078
:100FF600003FFC5FF86FF0700070007000700070CA
:1010060000700070007000700060005FF83FFC5FC9
:10101600FA6006700E700E700E700E700E700E7006
:101026000E700E700E6FF65FFA3FFC0000000000B7
:10103600007FFC3FFA1FF6000E000E000E000E00A9
:101046000E000E000E000E000E000600020000004C
:10105600020006000E000E000E000E000E000E002E
:101066000E000E000E000E0006000200000000003A
:10107600003FFC5FFA6FF6700E700E700E700E7009
:101086000E700E700E700E700E60065FFA3FFC5FFB
:10109600FA6006700E700E700E700E700E700E7086
:1010A6000E700E700E6FF65FFA3FFC000000000037
:1010B600003FFC5FFA6FF6700E700E700E700E70C9
:1010C6000E700E700E700E700E60065FFA3FFC1FFB
:1010D600FA0006000E000E000E000E000E000E00B6
:1010E6000E000E000E1FF63FFA7FFC000000000007
:1010F60000000000000000000000000000000003E7
:10110600C003C003C003C0000000000000000000D0
:101116000000000000000003C003C003C003C000BD
:1011260000000000000000000000000000000000B9
:1011360000000000000000000000000000000000A9
:101146000000000000000000000000000000000099
:101156000000000000000000000000000000000089
:101166000000000000000000000000000000000079
:101176000000000000000000000000FFFF73CE71B9
:10118600C671CE71CE79CC79CC3BEC3BEC3BFC3BCB
:10119600FC3BF83FF83FF81EF81EF81E781E701E3E
:1011A600701C700C700C7000000000000000000045
:1011B60000000000000000000000000000FFFC3CF2
:1011C6003C3C0E3C0E3C063C003C103C303C303C6B
:1011D600703FF03C703C303C303C303C003C023CC4
:1011E600073C063C0E3C3EFFFE00000000000000EF
:1011F600000000000000000000000000000000FFEA
:10120600003C003C003C003C003C003C003C003CF8
:10121600003C003C003C003C003C003C003C003CE8
:10122600023C073C063C0E3C3EFFFE000000000070
:1012360000000000000000000000000000000000A8
:101246000007FE0F3E1C0E3C0E380678077800702D
:1012560000F000F000F000F000F000F000F0007880
:1012660002780678063C0E3C1C1FF807F0000000CA
:101276000000000000000000000000000000000068
:1012860000000007F01E781C3C381C381E781E78BB
:101296000E700F700FF00FF00FF00FF00F700F7051
:1012A6000F780E780E381E3C1C1C3C0F7807F00099
:1012B6000000000000000000000000000000000028
:1012C6000000000000F81F781E783E783E7C3E7CC9
:1012D6003E7C7E7C7E7C7E7E7E7EFE6EFE6EFE6F1D
:1012E600DE6FDE67DE67DE679E679E679E739EFB28
:1012F6007F00000000000000000000000000000069
:1013060000000000000000FFFC3C3C3C0E3C0E3C94
:10131600063C003C103C303C303C703FF03C703C9E
:10132600303C303C303C003C023C073C063C0E3C2A
:101336003EFFFE000000000000000000000000006C
:10134600000000000000000FE01EF01C7038383866
:1013560038783C783C703C703C703C703C703C701B
:101366003C783C783C383838381C701EF00FE0006A
:101376000000000000000000000000000000000067
:101386000001801F801F8003800380038003800389
:10139600800380038003800380038003800380032F
:1013A600800380038007C01FF800000000000000D3
:1013B60000000000000000000000000FE01CF038F4
:1013C60038703C783C783C383C0038007800700037
:1013D600E001C0038007000E001C0C381C701C7F47
:1013E600F87FF80000000000000000000000000088
:1013F60000000000000FE03CF0387078787838384C
:10140600380078007001E007C001F000780038006D
:101416003C303C783C783878383CF01FE0000000DF
:1014260000000000000000000000000000000000B6
:101436007000F001F001F003F007F006F00EF01C6A
:10144600F018F030F070F060F0FFFE00F000F000F1
:10145600F000F000F007FC000000000000000000B3
:101466000000000000000000003FF83FF838003898
:10147600003800380030003FE03FF0387830380060
:101486003C003C003C383C783C783878783CF01F8F
:10149600E000000000000000000000000000000066
:1014A60000000007F00F781C78383838007800788C
:1014B6000077F07FF87C38783C781C701C701C78BC
:1014C6001C781C383C3C381E700FE0000000000001
:1014D600000000000000000000000000003FFC3F8C
:1014E600FC781870306070006000E000C001C00138
:1014F600C00380038003800780078007800780077A
:1015060080078007000000000000000000000000C7
:10151600000000000000001FE03CF03838703C700E
:101526001C701C78383E381FF00FE01FF038F8703A
:1015360078703C701C701C701C78383CF01FE00002
:101546000000000000000000000000000000000095
:10155600001FE03CF038787038703C703C703C708E
:101566003C703C787C3CFC1FFC073C003C0038008F
:1015760078387038F03DE01FC00000000000000021
:101586000000000000000000000000F9F070E070AC
:10159600C070C038C039C0398039801D801F001F17
:1015A600001F000F000E000E000E000000000000DD
:1015B6000000000000000000000000000000000025
:1015C60000000000000000000000001F803DC07009
:1015D600E070E070F0F070E070E070E070E070F0E5
:1015E6007070F070E078E03DC01F800000000000E1
:1015F60000000000000000000000000000000000E5
:101606000000000000000000000000FC00780078E8
:101616000078007800780078007800780078007804
:101626000078007830787078E0FFE0000000000075
:1016360000000000000000000000000000000000A4
:101646000000000000000000000000F9F07060706B
:101656006070607060706070607060706070607004
:10166600607060706070E039C01F8000000000008C
:101676000000000000000000000000000000000064
:101686000000000000000000000000F0F070E071B3
:10169600E071E079E079E07BE07BE07FE07FE07F6E
:1016A600E07FE06EE06EE06EE0FFF000000000001C
:1016B6000000000000000000000000000000000024
:1016C6000000000000000000000000FFE070E07075
:1016D6006070307180718071807F807180718071DF
:1016E6008070007030707070E0FFE0000000000055
:1016F60000000000000000000000000000000000E4
:1017060000000000000000000000000000000000D3
:10171600000000000000000000FFF00000000000D4
:1017260000000000000000000000000000000000B3
:1017360000000000000000000000000000000000A3
:10174600000000000000000000000000000000068D
:10175600000600060006000600FFF006000600066A
:101766000006000600000000000000000000000067
:101776000000000000000000000000000000000063
:101786000000000000000000000000000000000053
:101796000000000000000000000000000007C00775
:1017A600C007C007C00000000000000000000000E5
:1017B60000000000000000000007C007C007C007C7
:1017C600C000000000000000000000000000000053
:1017D600000000007E0000E78001C1800381C00395
:1017E60000E00700600700700E00700E00700E002B
:1017F600381C00381C00381C00381C003C1C001C1F
:101806001C001C38001C38001C38001C38001C3812
:10181600001C38001C38001C38001C38001C38001E
:101826001C38001C38001C38001C38001C38001CF2
:101836003C001C1C001C1C001C1C00381C00381C16
:1018460000380E00380E00380E00700600700700D3
:10185600600700E00380C00181C001C380007F00F3
:101866000018000000000000000000000004000056
:101876000C00003C0000FC0001FC00023C00001CC7
:1018860000001C00001C00001C00001C00001C00C6
:10189600001C00001C00001C00001C00001C0000B6
:1018A6001C00001C00001C00001C00001C00001C8A
:1018B60000001C00001C00001C00001C00001C0096
:1018C600001C00001C00001C00001C00001C000086
:1018D6001C00001C00001C00001C00001C00001C5A
:1018E60000001C00001C00001C00001C00001C0066
:1018F600003E0001FF8003FFE00000000000000042
:101906000000000000007E0001FF0003FF80030FBF
:10191600C00603C00401E00C01E00800F01800F066
:101926001800701000701000701000702000700019
:101936000070000070000070000070000060000081
:10194600600000E00000E00000C00001C00001C02F
:10195600000180000380000300000700000600006D
:101966000C00000C00001800003000003000006081
:101976000000E00000C00001800401800403000CA8
:101986000700080600180FFFF80FFFF81FFFF03FCB
:10199600FFF0000000000000000000000000007ED4
:1019A6000001FF00038F800303C00603C00401C0CB
:1019B6000C00E00800E00800E01000E01000600005
:1019C60000E00000C00000C00000C000018000016F
:1019D60080000300000600000E00001F00007F804C
:1019E60001FFC00007E00003E00000F00000F00087
:1019F6000070000070000030000030000030000071
:101A060030000030000030000030000030000030B0
:101A16000000200000600000600000C00801801C7B
:101A260003801F07001FFC000FF80003C000000022
:101A3600000000000000000000800000800001801F
:101A460000018000038000038000078000078000FB
:101A56000D80000D80001980001980003180003152
:101A66008000618000618000418000C18000C180EB
:101A760001818001818003018003018006018006C7
:101A860001800C01800C0180180180180180300152
:101A9600803001803001807FFFFC7FFFFC000180E9
:101AA60000018000018000018000018000018000AB
:101AB600018000018000018000018000018000019A
:101AC60080000180000000000000000000000018F7
:101AD600000030007FF000FFF000FFE000C00001D2
:101AE600C0000180000180000180000300000300A7
:101AF6000003000007000007C00007F0000FFC000D
:101B06000FFE000FFF00007F80001F800007C0004F
:101B160003C00001E00001E00000E00000E000007A
:101B260070000070000070000030000030000030CF
:101B3600000030000030000030000030000060007F
:101B460000600000600000400000C000008010013E
:101B5600801E03003F86001FFC000FF80003C00034
:101B66000000000000000000180000F80003C0009C
:101B76000700001E00003C0000780000700000E036
:101B86000001E00001C000038000038000070000A0
:101B96000700000F00000E00000E00000E3F801E22
:101BA6007FC01EFFE01F81F01E00F01E00781C00A3
:101BB600781C00381C003C18003C18001C18001C3F
:101BC60018001C18001C18001C18001C1C001C1CEB
:101BD600001C1C001C1C001C0C001C0E00180E0017
:101BE6001806003807003007003003806001C0E0A7
:101BF60000F3C0007F80001C000000000000000011
:101C060000000000000FFFF80FFFF80FFFF81C00A0
:101C160010180030180030100030300030200060FE
:101C26002000600000600000600000E00000C000CE
:101C360000C00000C00000C00001C000018000011B
:101C46008000018000038000030000030000030001
:101C56000003000007000006000006000006000062
:101C66000E00000E00000C00000C00001C00001C02
:101C760000001800001800001800003800003800A6
:101C8600003000003000007000007000007000009E
:101C96000000000000000000000000007F0000FFC0
:101CA600800181C00300E00600600400700C003073
:101CB6000C00300C00300C00300C00300C00300EE4
:101CC60000300E00700E00600F00600780C007C174
:101CD600C003E38001F30001FE0000FC00007E006B
:101CE600003F00007F8000CF800187C00303E00330
:101CF60001E00600F00600700C00780C00380C00BD
:101D0600380C00380C00180C00180C00180C0018C1
:101D16000C00180C00180E00300600300700600397
:101D260080E001E1C000FF00001C00000000000090
:101D360000000000007E0001C7000303800701C009
:101D46000600C00E00E00C00600C00701C00701C49
:101D56000070180038180038380038380038380055
:101D66003838003838003C38003C38003C3C003CF1
:101D76001C003C1C003C1C00381E00380E00380FAE
:101D860000780780F807C3B803FE3800F830000073
:101D9600700000700000700000E00000E00001C06C
:101DA6000001C00003C0000380000700000F000010
:101DB6000E00001C0000380000700001E0000780E3
:101DC600001E0000000000000000000000000007E8
:101DD600800FE018703870703870387038F03CF04A
:101DE6003CF03CF03CF03CF03C703C7038703838CD
:101DF6007018700FE007800000000000000000006F
:101E06000000000000000000000000000003800742
:101E1600800F801F803B8003800380038003800344
:101E26008003800380038003800380038003800790
:101E3600801FE0000000000000000000000000001D
:101E4600000000000000000000000000000FC01F9E
:101E5600E038F07078607860780078007000F00004
:101E6600E001C0038007000E001C0038187038FF20
:101E7600F800000000000000000000000000000064
:101E860000000000000000000000000FE01DF03020
:101E9600F0307000E000C0018007E00FF00078002D
:101EA600380038003800380078007070E07FC01FB6
:101EB600000000000000000000000000000000001C
:101EC600000000000000000000006000E001E001EA
:101ED600E003E007E00EE00CE01CE038E030E070E4
:101EE600E0FFFC00E000E000E000E000E000E000D1
:101EF60000000000000000000000000000000000DC
:101F060000000000001FF01FF0180018001800184D
:101F16000018001FC01FE019F000780038003800D4
:101F26003800380038207078E03FC00F000000000D
:101F3600000000000000000000000000000000009B
:101F4600000000007001E007800F001E001C003C2E
:101F56000038007BE078F070787038703870387030
:101F660038783838783C701FE007800000000000A1
:101F7600000000000000000000000000000000005B
:101F86000000007FF87FF86030607000700060002D
:101F9600E000C000C001C00180038003800300038D
:101FA6000007000600060006000000000000000012
:101FB6000000000000000000000000000000000714
:101FC600801FE01C703838383838383C383E701F6F
:101FD600E00FE00FF03CF8387C783C783C783C38F1
:101FE6003838781FF007C00000000000000000002D
:101FF6000000000000000000000000000007801F35
:10200600E038707870703870387038703878387892
:10201600383C381F780070007000E000E001C0070F
:10202600801F0038000000000000000000000000D3
:10203600000000000000000000000000000000009A
:10204600000000000000000000000000000000008A
:1020560000FF8000000000000000000000000000FB
:0D206600000000000000000000000000006D
:0288B900C108F4
:079A9400129D707F0A7E00A5
:109A9B00EF1FAA0670011E4A600BE4FDEDC3947D17
:059AAB0050EE0D80F7F4
:019AB0002293
:0C98D9007FC71298E5E4FF1298E57F04B9
:1098E50020B5FD8F80C2B40000000000000000001C
:0698F500000000D2B422C5
:039D70000298E571
:0E9410007BFF90007A1267967B027D047FB985
:10941E001298E5AF051298E5AF031298E590007A21
:10942E0012677612661EFF600F1298E590007BE4BD
:0D943E0075F00112675480E5E4FF0298E527
:109CE100AE077FE41298E5AF061298E5AF0502983A
:019CF100E58D
:109807007FC81298E57F011298E57F071298E57FD8
:10981700011298E57F061298E5E4FF1298E57F3379
:039827000298E5BF
:1098FB007FC81298E5E4FF1298E57F071298E57F81
:10990B00011298E57F061298E5FF1298E57F330266
:02991B0098E5CD
:10982A007FC81298E57F011298E57F071298E57FB5
:10983A003F1298E57F061298E5E4FF1298E57F3318
:03984A000298E59C
:10984D007FC81298E5E4FF1298E57F071298E57F2F
:10985D003F1298E57F051298E57F071298E57F3353
:03986D000298E579
:1099FE007FC81298E57F011298E57F0D1298E57FDA
:0E9A0E00011298E0E4FF1298E57F210298E52E
:109AB1007FC81298E5E4FF1298E57F0D1298E57FC3
:0D9AC100011298E0FF1298E57F210298E560
:109A1C007FC81298E57F011298E57F0D1298E57FBB
:0E9A2C00311298E0E4FF1298E57F210298E5E0
:109ACE007FC81298E5E4FF1298E57F0D1298E57FA6
:0D9ADE00311298E0FF1298E57F210298E513
:109A3A007FC81298E57F011298E57F0D1298E57F9D
:0E9A4A00611298E0E4FF1298E57F210298E592
:109AEB007FC81298E5E4FF1298E57F0D1298E57F89
:0D9AFB00611298E0FF1298E57F210298E5C6
:109B08007FC71298E5E4FF1298E50F1298E57F0BDE
:0D9B18001298E57F021298E07F0A0298E59E
:109B25007FC81298E57F011298E51F1298E57F1E00
:0D9B35001298E57F011298E07F0C0298E580
:109B99007FC81298E5E4FF1298E51298E57F1E1236
:0C9BA90098E57F011298E07F0C0298E51F
:109B42007FC81298E57F011298E51F1298E57F30D1
:0D9B52001298E57F011298E07F0C0298E563
:109BB5007FC81298E5E4FF1298E51298E57F301208
:0C9BC50098E57F011298E07F0C0298E503
:109B5F007FC81298E57F011298E51F1298E57F42A2
:0D9B6F001298E57F011298E07F0C0298E546
:109BD1007FC81298E5E4FF1298E51298E57F4212DA
:0C9BE10098E57F011298E07F0C0298E5E7
:109A58007FC81298E57F011298E57F111298E57F7B
:0E9A6800301298E0E4FF1298E57F200298E5A6
:109C20007FC81298E57F011298E57F111298DBFF3B
:089C30001298E57F200298E57F
:109BED007FC81298E5E4FF1298E57F111298E512EF
:0B9BFD0098DFFF1298E57F200298E53A
:109B7C007FC81298E5E4FF1298E57F111298E57FF3
:0D9B8C00301298E0FF1298E57F200298E566
:10895D002475F9740E3EFA7BFF90007B126796909A
:0F896D0000797402F0A37420F07D117B307FFD40
:02897C00A90749
:10897E0090007AE0FF900079E08FF0A4FF90007EE7
:10898E00E5F0F0A3EFF0AF011298E5AF051298E510
:10899E00AF031298E5900079E0FF1298E5A3E0FF8F
:1089AE001298E5E4FDFCD390007FE09DEC6480F826
:1089BE0090007EE0648098401E90007B12677612D5
:1089CE00661EFF1298E590007CE475F00112675464
:0789DE000DBD00010C80CF6C
:0189E500226F
:1095540090005A7401F0A3F0A37407F07B787FC5E0
:109564001298E5AF051298E5AF031298E590005AFA
:10957400E0FF1298E5A3E0FF1298E5A3E0FF02984C
:01958400E501
:10967800AB077C007D0A7E001266FFEF2430900065
:1096880077F07E00AF037C007D0A1266FFAF05EF1E
:0D9698002430A3F0E4A3F07B017A00797781
:0196A50022A2
:108FA5007FC71298E5E4FF1298E50F1298E512982D
:108FB500E51F1298E57F071298E57F3E1298E57F39
:108FC500C71298E5FF1298E51298E57F081298E513
:108FD5007F0E1298E5FF1298E57F401298E57FC74E
:108FE5001298E5FF1298E50F1298E57F781298E53B
:0E8FF500FF1298E57F071298E57F3E0298E58F
:107E37009000797402F0A37421F07BFF7A117975B1
:107E4700A31267967B087D0F7FFD12897C7F287EB2
:107E570000129C389000797402F0A37421F07BFF24
:107E67007A1179B7A31267967B187D0F7FFD128968
:107E77007C7F287E00129C389000797402F0A374EE
:107E870021F07BFF7A1179F9A31267967B287D0F82
:107E97007FFD12897C7F287E00129C3890007974C0
:107EA70002F0A37421F07BFF7A12793BA312679645
:107EB7007B387D0F7FFD12897C7F287E00129C38DE
:107EC7009000797402F0A37421F07BFF7A12797D18
:107ED700A31267967B487D0F7FFD12897C7F287EE2
:107EE70000129C389000797402F0A37421F07BFF94
:107EF7007A1279BFA31267967B587D0F7FFD12898F
:107F07007C7F287E00129C389000797402F0A3745D
:107F170021F07BFF7A137901A31267967B6A7D0FA5
:057F27007FFD02897CD2
:108A6500E490005AF0A304F0A37408F0E4FBFD7F42
:108A7500C512956490005A7401F0A3F0A37407F031
:108A85000B7FC5129564E490005AF0A304F0A3741B
:108A950008F07B7F7FC5129564129554E490005AC7
:108AA500F0A304F0A37408F0E4FB7D387FC51295AC
:108AB5006490005A7401F0A3F0A37407F00B7D3F96
:108AC5007FC5129564129554E490005AF0A304F002
:0D8AD500A37408F07B7F7D387FC502956497
:109778007FF4129A947FE5129A94B200300307900E
:10978800005674038004E4900056F0FF1295E71227
:059798008FA5028A65A7
:108B5F0090006EE0FF7E00900074EEF0A3EFF07CCB
:108B6F00007D0A1266FF7C007D3E1266ED74CD2FEC
:108B7F00F9741D3EFA7BFF90007B12679690007987
:108B8F007402F0A3741FF07B017D0E7FFD12897CB0
:108B9F00900074E0FEA3E0FF7C007D0A1266FF7E6A
:108BAF00007F3E1266ED74CD2FF9741D3EFA7BFFE8
:108BBF0090007B1267969000797402F0A3741FF0F7
:098BCF007B117D0E7FFD02897C03
:108BD80090006FE0FF7E00900074EEF0A3EFF07C51
:108BE800007D0A1266FF7C007D3E1266ED74CD2F73
:108BF800F9741D3EFA7BFF90007B1267969000790E
:108C08007402F0A3741FF07B317D0E7FFD12897C06
:108C1800900074E0FEA3E0FF7C007D0A1266FF7EF0
:108C2800007F3E1266ED74CD2FF9741D3EFA7BFF6E
:108C380090007B1267969000797402F0A3741FF07D
:098C48007B417D0E7FFD02897C59
:108C5100900070E0FF7E00900074EEF0A3EFF07CD6
:108C6100007D0A1266FF7C007D3E1266ED74CD2FF9
:108C7100F9741D3EFA7BFF90007B12679690007994
:108C81007402F0A3741FF07B617D0E7FFD12897C5D
:108C9100900074E0FEA3E0FF7C007D0A1266FF7E77
:108CA100007F3E1266ED74CD2FF9741D3EFA7BFFF5
:108CB10090007B1267969000797402F0A3741FF004
:098CC1007B717D0E7FFD02897CB0
:108CCA00900071E0FF7E00900074EEF0A3EFF07C5C
:108CDA00007D0A1266FF7C007D991266ED74D32F1F
:108CEA00F974173EFA7BFF90007B12679690007921
:108CFA007403F0A37433F07B017D077FFD12897C36
:108D0A00900074E0FEA3E0FF7C007D0A1266FF7EFD
:108D1A00007F991266ED74D32FF974173EFA7BFF20
:108D2A0090007B1267969000797403F0A37433F075
:098D3A007B197D077FFD02897C95
:108D4300900072E0FF7E00900074EEF0A3EFF07CE1
:108D5300007D0A1266FF7C007D991266ED74D32FA5
:108D6300F974173EFA7BFF90007B126796900079A7
:108D73007403F0A37433F07B3E7D077FFD12897C7F
:108D8300900074E0FEA3E0FF7C007D0A1266FF7E84
:108D9300007F991266ED74D32FF974173EFA7BFFA7
:108DA30090007B1267969000797403F0A37433F0FC
:098DB3007B567D077FFD02897CDF
:10734D00900073E0FB7A007C007D0AFF7E001266E0
:10735D00FFA3EFF07E00AF037C007D0A1266FFAE47
:10736D0005E01460231460331460431460531460FB
:10737D0063240570737FC11298E57F321298E57F03
:10738D006E1298E57F30805D7FC11298E57F3212D5
:10739D0098E57F6E1298E57F31804A7FC11298E59E
:1073AD007F321298E57F6E1298E57F3280377FC16C
:1073BD001298E57F321298E57F6E1298E57F338043
:1073CD00247FC11298E57F321298E57F6E1298E501
:1073DD007F3480117FC11298E57F321298E57F6E60
:1073ED001298E57F351298E5EE12679F741B0074B5
:1073FD002F01744302745703746A04747D057490ED
:10740D000674A30774B60874C909000074DD7FC142
:10741D001298E57F321298E57F761298E57F30025B
:10742D0074DA7FC11298E57F321298E57F76129853
:10743D00E57F310274DA7FC11298E57F321298E54B
:10744D007F761298E57F320274DA7FC11298E57F5C
:10745D00321298E57F761298E57F3380707FC112E6
:10746D0098E57F321298E57F761298E57F34805D3E
:10747D007FC11298E57F321298E57F761298E57FED
:10748D0035804A7FC11298E57F321298E57F7612DA
:10749D0098E57F3680377FC11298E57F321298E5E7
:1074AD007F761298E57F3780247FC11298E57F3271
:1074BD001298E57F761298E57F3880117FC112987A
:1074CD00E57F321298E57F761298E57F391298E5BF
:0174DD00228C
:07800F0090008CEDF0AC07BE
:10801600E4FF900090F0A3F0EC30E7170FF4FC902B
:10802600008CE0540FFEF0C374109EFEF0BE1003E9
:108036000CE4F0EF7BFFB401067A00792680047A1F
:1080460000792890007A1267967B0112941A129A88
:1080560097AF0412967890008D12679690008D1255
:108066006776129412129A977BFF7A00792A90000B
:108076007A1267967B0412941A129A9790008CE0F3
:10808600FF7E00900090EEF0A3EFF07C027D71126F
:1080960066EDEF24F4FFEE3401FE900090F0A3EFBE
:1080A600F07C007D641266FF900090EEF0A3EFF086
:1080B60012967890008D126796900001E41266CBB6
:1080C60090008D12677690007A1267967B0512945F
:1080D6001A7BFF7A00792C90007A1267967B067FCE
:0480E600B902941E29
:1090BB00786E7C007D017B017A0079687E007F06EB
:1090CB001265F8128CCA9000797402F0A37426F022
:1090DB007BFF7A177987A31267967D0912897878B7
:1090EB006E7C007D017B017A0079687E007F061221
:1090FB0065F8128D43786E7C007D017B017A0079D7
:0B910B00687E007F061265F802734DBD
:10867B00786E7C007D017B017A0079687E007F0635
:10868B001265F8128B5F7F0A7E00129C389000797E
:10869B007402F0A3741DF07BFF7A207939A3126763
:1086AB00967B237D0B7FFD12897C7F0A7E00129CBB
:1086BB0038786E7C007D017B017A0079687E007FC3
:1086CB00061265F8128BD87F0A7E00129C38900038
:1086DB00797402F0A3741DF07BFF7A207939A31211
:1086EB0067967B527D0B7FFD12897C7F0A7E001281
:1086FB009C38786E7C007D017B017A0079687E0066
:0F870B007F061265F8128C517F0A7E00029C389F
:0F935100786E7C007D017B017E007F061265F83F
:1093600090006EE0FF1296789000741267967BFF73
:109370007A00792E90007A1267967B03E4FD7FB91C
:1093800012941E90007412677690007A1267967B92
:06939000057FB902941EE6
:0E9585007B01786E7C000D7E007F061265F87B
:1095930090006FE0FF129678900074126796900027
:1095A3007412677690007A1267967B08E4FD7FB9A0
:0395B30002941E01
:0E95B6007B01786E7C000D7E007F061265F84A
:1095C400900070E0FF1296789000741267969000F5
:1095D4007412677690007A1267967B0BE4FD7FB96C
:0395E40002941ED0
:1091C4007A0079921293517BFF7A00792A90007A7F
:1091D4001267967B07E4FD7FB912941E7A00799298
:1091E4001295857BFF7A00792A90007A1267967B24
:1091F4000AE4FD7FB912941E7A0079921295B6782A
:109204006E7C007D017B017A0079927E007F0612DC
:0592140065F8029C64F6
:0F7AFF0078747C007D017B017E007F061265F8A4
:107B0E00900074E0FD90007AE4F0A3EDF090007523
:107B1E00E0FB7A00A3E0FD90007CE4F0A3EDF0EB37
:107B2E0064016005EB64027011740C2BFBE43AFAED
:107B3E0090007A74FFF5F0126754EB2401FFE43ADB
:107B4E00FE7C007D031266ED7D051266FFAC06AD70
:107B5E0007EB25E0FFEA33FE90007DE02401FB9069
:107B6E00007CE03400CB2FFFEB3ECF2DCF3CFE90C0
:107B7E00007AE0FCA3E0FD2FFBEC3EFAEDAE0478BC
:107B8E0002CEC313CE13D8F92BFBEA3EFA90007A3D
:107B9E00E0FEA3E0FF7C007D641266FFC3EB9FFB5B
:107BAE00EA9EFA90007AE0FEA3E0FF7C017D90123F
:107BBE0066FFEF2BFFEE3AFE7C007D071266FFAEEE
:107BCE0004AF05EE704EEF12679F7BF1007BF8015C
:107BDE007BFF027C06037C0D047C14057C1B0600D7
:107BEE00007C227BFF7A007931227BFF7A00793686
:107BFE00227BFF7A00793B227BFF7A007941227B40
:107C0E00FF7A007946227BFF7A00794B227BFF7A3E
:0A7C1E00007950227B007A00790003
:017C28002239
:1084FA0090005CE0FD900062E4F0A3EDF090005D76
:10850A00E0FB7A00A3E0FD900064E4F0A3EDF0EB59
:10851A0064016005EB64027011740C2BFBE43AFAF7
:10852A0090006274FFF5F0126754EB2401FFE43AFD
:10853A00FE7C007D031266ED7D051266FFAC06AD7A
:10854A0007EB25E0FFEA33FE900065E02401FB908B
:10855A000064E03400CB2FFFEB3ECF2DCF3CFE90E2
:10856A000062E0FCA3E0FD2FFBEC3EFAEDAE0478DE
:10857A0002CEC313CE13D8F92BFBEA3EFA9000625F
:10858A00E0FEA3E0FF7C007D641266FFC3EB9FFB65
:10859A00EA9EFA900062E0FEA3E0FF7C017D901261
:1085AA0066FFEF2BFFEE3AFE7C007D071266FFAFF7
:0185BA0005BB
:0185BB00229D
:109C4E007A007998127AFF90007A1267967B0A7DD5
:069C5E00047FB902941E10
:0D762D00900072E0FF900075E0FCA3E0FD0E
:10763A00EF12679F766901767D0276910376A5043B
:10764A0076B90576CD0676E10776F50877090977E2
:10765A001D0A77310B77450C77590D0000776D7449
:10766A00232DF582740C3CF583E49354087002C30D
:10767A0022D32274232DF582740C3CF583E49354AF
:10768A00047002C322D32274232DF582740C3CF5B4
:10769A0083E49354027002C322D32274232DF58209
:1076AA00740C3CF583E49354017002C322D3227410
:1076BA00242DF582740C3CF583E49354807002C344
:1076CA0022D32274242DF582740C3CF583E493545E
:1076DA00407002C322D32274242DF582740C3CF527
:1076EA0083E49354207002C322D32274242DF5829A
:1076FA00740C3CF583E49354107002C322D32274B1
:10770A00242DF582740C3CF583E49354087002C36B
:10771A0022D32274242DF582740C3CF583E493540D
:10772A00047002C322D32274242DF582740C3CF512
:10773A0083E49354027002C322D32274242DF58267
:10774A00740C3CF583E49354017002C322D322746F
:10775A00252DF582740C3CF583E49354807002C3A2
:04776A0022D322C341
:01776E0022F8
:0299C100AB07F2
:1099C3007E007C007D0A1266FFEFC454F0FAAF03F9
:0C99D3007E007C007D0A1266FFEA2DFF7A
:0199DF002265
:105CE900A907C204900069E090006CF090006AE096
:105CF90090006DF090006BE090006EF0A37401F0DD
:105D0900E4900070F090006CE0FF1299C1EFF0A3ED
:105D1900E0FF1299C1EFF0A3E0FF1299C1EFF090F3
:105D2900006CE0FFC4540FFBEF540FFAEB75F00A57
:105D3900A42AF0A3E0FFC4540FFBEF540FFAEB754C
:105D4900F00AA42AF0A3E0FFC4540FFBEF540FFAA2
:105D5900EB75F00AA42AF090006CE0200407246394
:105D6900FFE433800624FFFFE434FFFE7C007D035B
:105D79001266ED900075EEF0A3EFF0900075E0FE6D
:105D8900A3E02425F582740C3EF583E493FE546068
:105D9900FB7805FF08800103D8FDFBEE541FFAEBE1
:105DA900B40104EA148003EA241E900071F0900003
:105DB9006DE0FFC3940A5012EF900E5993FF9000C3
:105DC9006EE0FDEF2DFFE433802290006DE025E0C9
:105DD900244FF582E4340EF583E493FE740193FFB6
:105DE90090006EE0FD7C00EF2DFFEC3ECF24FFCF4D
:105DF90034FF900073F0A3EFF090006DE0D39402AC
:105E0900401190006CE05403700990007375F00123
:105E1900126754900071E0FFC3900074E09F9000F6
:105E290073E094005003025ED1900074E09FF090FB
:105E39000073E09400F090006D7401F0900072F02E
:105E4900900075E0FCA3E0FD7F0112763A9205C24D
:105E5900062005047B1D80027B1E900075E0FEA3D1
:105E6900E02423F582740C3EF583E49354F0FA7828
:105E790004FF08800103D8FDFAEBFFC3900074E02A
:105E89009F900073E094004037A3E09FF090007367
:105E9900E09400F0900072E004F090006DE0B5022B
:105EA90009B20620060A04F0800690006DE004F0AD
:105EB90012762D92052005047B1D80BD7B1E80B9BD
:105EC900900073A3E0025F83900071E0FF9000737C
:105ED900A3E0FEC3EF9E900071F090006CE07007A4
:105EE9007463F0D204800690006CE014F0900075A1
:105EF90074FF75F0FD12675490006D740CF09000FA
:105F090075E0FCA3E0FD2423F582740C3CF583E4E1
:105F19009354F0FA7804FF08800103D8FDFA900041
:105F2900727005740CF08003740DF0C20690007253
:105F3900E0FF12763A92052005047B1D80027B1E44
:105F4900900071E0FFD39B4029EF9BF0A3E014F090
:105F590020060690006DE014F090006DE0B5020295
:105F6900B20612762D92052005047B1D80D27B1E78
:105F790080CE900071E0FFC3EB9F0490006EF0A209
:105F890004920790006CE0FE90004DF090006DE0E7
:105F9900FD90004EF090006EE0FF90004FF09000F1
:0F5FA9006FE0FC7003AF0622ECB40103AF0522DA
:015FB80022C6
:0F926900786E7C007D017B017E007F061265F828
:1092780090006FE025E024FEFFE4FEEEFDEF2DFDFB
:10928800E433FC90006EE075F0189002C312676A30
:10929800E5822DF582E5833CF583E493FD9000702B
:0F92A800E0B50504EF2EFF220EEEB402CE7F18C4
:0192B7002294
:10991D007FC71298E5E4FF1298E57F311298E57F35
:10992D00081298E57F0B1298E5FF1298E57F0C025F
:02993D0098E5AB
:106279007A007968129269EF12679F62E8006300F9
:106289000163180263300363480463600563780699
:1062990063900763A80863C00963D80A63F00B64B5
:1062A900080C64200D64380E64500F646810648013
:1062B9001164981264B01364C81464E01564F81684
:1062C90065101762D318000065277BFF7A0079559E
:1062D90090007A1267967B107D047FB902941E7B29
:1062E900FF7A00795A90007A1267967B1012941AF5
:1062F9009000067401F0227BFF7A00795F90007AA2
:106309001267967B1012941A9000067402F0227B91
:10631900FF7A00796490007A1267967B1012941ABA
:106329009000067403F0227BFF7A00796990007A65
:106339001267967B1012941A9000067404F0227B5F
:10634900FF7A00796E90007A1267967B1012941A80
:106359009000067405F0227BFF7A00797390007A29
:106369001267967B1012941A9000067406F0227B2D
:10637900FF7A00797890007A1267967B1012941A46
:106389009000067407F0227BFF7A00797D90007AED
:106399001267967B1012941A9000067408F0227BFB
:1063A900FF7A00798290007A1267967B1012941A0C
:1063B9009000067409F0227BFF7A00798790007AB1
:1063C9001267967B1012941A900006740AF0227BC9
:1063D900FF7A00798C90007A1267967B1012941AD2
:1063E900900006740BF0227BFF7A00799190007A75
:1063F9001267967B1012941A900006740CF0227B97
:10640900FF7A00799690007A1267967B1012941A97
:10641900900006740DF0227BFF7A00799B90007A38
:106429001267967B1012941A900006740EF0227B64
:10643900FF7A0079A090007A1267967B1012941A5D
:10644900900006740FF0227BFF7A0079A590007AFC
:106459001267967B1012941A9000067410F0227B32
:10646900FF7A0079AA90007A1267967B1012941A23
:106479009000067411F0227BFF7A0079AF90007AC0
:106489001267967B1012941A9000067412F0227B00
:10649900FF7A0079B490007A1267967B1012941AE9
:1064A9009000067413F0227BFF7A0079B990007A84
:1064B9001267967B1012941A9000067414F0227BCE
:1064C900FF7A0079BE90007A1267967B1012941AAF
:1064D9009000067415F0227BFF7A0079C390007A48
:1064E9001267967B1012941A9000067416F0227B9C
:1064F900FF7A0079C890007A1267967B1012941A75
:106509009000067417F0227BFF7A0079CD90007A0B
:0E6519001267967B1012941A9000067418F008
:016527002251
:107D38007A007968129269EF12679F7D8F007D96AD
:107D4800017D9D027DA4037DAB047DB2057DB9064E
:107D58007DC0077DC7087DCE097DD50A7DDC0B7DFA
:107D6800E30C7DEA0D7DF10E7DF80F7DFF107E0698
:107D7800117E0D127E14137E1B147E22157E291689
:107D88007E301700007E369000067401F0229000C5
:107D9800067402F0229000067403F0229000067424
:107DA80004F0229000067405F0229000067406F094
:107DB800229000067407F0229000067408F02290C2
:107DC80000067409F022900006740AF0229000065A
:107DD800740BF022900006740CF022900006740DCB
:107DE800F022900006740EF022900006740FF02224
:107DF8009000067410F0229000067411F022900092
:107E0800067412F0229000067413F0229000067493
:107E180014F0229000067415F0229000067416F0F3
:0E7E2800229000067417F0229000067418F0E5
:017E36002229
:1083670090004EE0FEB40C0EA3E0B41E097BFF7A2A
:108377000079D202841BEEB4011090004FE0B401E3
:10838700097BFF7A0079D602841B90004EE0B40186
:108397000DA3E0B40F087BFF7A0079DB80769000AD
:1083A7004EE0FEB4020DA3E0B402087BFF7A007929
:1083B700E28061EEB4050F90004FE0B405087BFF43
:1083C7007A0079E9804E90004EE0B4070DA3E0B43F
:1083D7000F087BFF7A0079F0803A90004EE0FEB4F8
:1083E700080DA3E0B40F087BFF7A0079F78025EE2C
:1083F700B4090F90004FE0B409087BFF7A0079FEBB
:10840700801290004EE0B40C11A3E0B4080C7BFF7F
:108417007A017905129412D20822C208900006E068
:0A84270070077A01790C12941022FC
:104DA100900048E0FFE46003024F9BEF24FE60495E
:104DB100147003024E43147003024ED9147003029F
:104DC1004F2524046003024F9B900049E0FFE470EB
:104DD10014EF1470107A0179131294109000067474
:104DE10019F0024F9BE4900006F0300803024F9B3C
:104DF1007BFF7A007955024ECB900049E0FFE470C9
:104E01002DEF24F26016240470247BFF7A017918B7
:104E1100129412900006741AF0024F9B7BFF7A01E4
:104E2100791F129412900006741BF0024F9BE490BC
:104E31000006F0300803024F9B7BFF7A01790C02D8
:104E41004ECB900049E0FFE4706FEF24F86022241C
:104E5100FC603024FD603E24F8604C2414705A7BC1
:104E6100FF7A017926129412900006741CF0024F09
:104E71009B7BFF7A01792D129412900006741DF02C
:104E8100024F9B7BFF7A01793412941290000674D1
:104E91001EF0024F9B7BFF7A01793B129412900026
:104EA100067420F0024F9B7BFF7A0179461294121F
:104EB1009000067422F0024F9BE4900006F0300847
:104EC10003024F9B7BFF7A01794D90007A1267961E
:104ED1007B0112941A024F9B900049E0FFE4702D70
:104EE100EF24EA6016241570247BFF7A01795812A9
:104EF10094129000067423F0024F9B7BFF7A017994
:104F01005F1294129000067424F0024F9B20081146
:104F11007BFF7A01794D90007A1267967B0112949A
:104F21001A024F96900049E0FFE47055EF24F860B3
:104F31001D24FC602A24ED6037241E70447BFF7A17
:104F41000179661294129000067426F0804C7BFF62
:104F51007A01796D1294129000067427F0803B7BE0
:104F6100FF7A0179781294129000067428F0802A51
:104F71007BFF7A01797F129412900006742BF080E6
:104F8100192008117BFF7A01794D90007A126796FA
:104F91007B0112941AE4900006F07F147E00129CAB
:104FA10038900048E0FFE46003025201EF12679F6E
:104FB1004FCA06501C07504C08507C0950EC0A514E
:104FC100450B51A40C00005201900049E0FFE47030
:104FD1003DEF24FB601824EB6024241970307BFF23
:104FE1007A017986129412900006742CF0227BFFCC
:104FF1007A01798D129412900006742DF0227BFFB4
:105001007A017998129412900006742FF022E4909C
:105011000006F03008030252018027900049E0FFAA
:10502100E47014EF1470107BFF7A0179A1129412CD
:105031009000067430F022E4900006F0300803027C
:1050410052017BFF7A01794D0251F6900049E0FF50
:10505100E47014EF1470107BFF7A0179A812941296
:105061009000067432F022E4900006F0300803024A
:1050710052017BFF7A01790C0251F6900049E0FF61
:10508100E47051EF24F6601C24F8602824FE60349B
:10509100241170407BFF7A0179AF129412900006BF
:1050A1007433F0227BFF7A0179B8129412900006D2
:1050B1007434F0227BFF7A0179BF129412900006BA
:1050C1007435F0227BFF7A0179C6129412900006A2
:1050D1007436F0222008117BFF7A0179CD90007A95
:1050E1001267967B0112941A02519E900049E0FFCB
:1050F100E4703DEF24F0601824F16024241E703028
:105101007BFF7A0179DA1294129000067439F02249
:105111007BFF7A0179E1129412900006743CF0222F
:105121007BFF7A0179E8129412900006743DF02217
:10513100E4900006F03008030252017BFF7A017906
:10514100EF0251F6900049E0FFE4703DEF24EF607B
:105151001824F56024241170307BFF7A0179FE1246
:105161009412900006743EF0227BFF7A02790512B8
:105171009412900006743FF0227BFF7A02790E129E
:1051810094129000067440F0222008117BFF7A02ED
:10519100791590007A1267967B0112941AE49000B7
:1051A10006F022900049E0FFE4703CEF24E860172C
:1051B100146024241870307BFF7A02791E12941235
:1051C1009000067441F0227BFF7A02792712941233
:1051D1009000067445F0227BFF7A02792E12941218
:1051E1009000067446F022E4900006F02008117B3E
:1051F100FF7A02793590007A1267967B0112941A30
:01520100228A
:1069EB00900048E0FFE46003026C0EEF12679F6AB1
:1069FB0022016A38026A5A036A9D046ABF056AF764
:106A0B00066B24076B3A086B50096B880A6BB40B47
:106A1B006BE00C00006C0E900049E0FFE4700BEF94
:106A2B001470299000067419F022026C0990004929
:106A3B00E0FFE47017EF24F2600B2404700E90005B
:106A4B0006741AF022900006741BF022026C099057
:106A5B000049E0FFE47038EF24F8601724FC601A5B
:106A6B0024FD601D24F8602024147023900006740C
:106A7B001CF022900006741DF022900006741EF08C
:106A8B00229000067420F0229000067422F022025D
:106A9B006C09900049E0FFE47017EF24EA600B24C7
:106AAB0015700E9000067423F0229000067424F0EB
:106ABB0022026C09900049E0FFE4702DEF24F8608E
:106ACB001324FC601624ED6019241E701C90000624
:106ADB007426F0229000067427F02290000674288A
:106AEB00F022900006742BF022026C09900049E012
:106AFB00FFE47022EF24FB600F24EB60122419706B
:106B0B0015900006742CF022900006742DF0229044
:106B1B000006742FF022026C09900049E0FFE4702C
:106B2B000BEF1470079000067430F022026C099082
:106B3B000049E0FFE4700BEF14700790000674320D
:106B4B00F022026C09900049E0FFE4702DEF24F66F
:106B5B00601324F8601624FE60192411701C900039
:106B6B00067433F0229000067434F0229000067401
:106B7B0035F0229000067436F022026C0990004921
:106B8B00E0FFE47022EF24F0600F24F16012241E6A
:106B9B0070159000067439F022900006743CF022B8
:106BAB00900006743DF0228055900049E0FFE470A0
:106BBB0022EF24EF600F24F5601224117015900062
:106BCB0006743EF022900006743FF022900006748B
:106BDB0040F0228029900049E0FFE47021EF24E887
:106BEB00600E146012241870159000067441F02288
:106BFB009000067445F0229000067446F022E49053
:046C0B000006F0226D
:1067C500900069EFF0A3EDF0A3EBF0C20490006C2C
:1067D500EFF0ED14A3F0A3EBF0A37402F0125D0942
:1067E500A907C204900069E090006CF090006AE08F
:1067F50090006DF090006BE090006EF0A37402F0D5
:10680500125D09EF69701CC204900069E090006C8C
:10681500F090006AE014125CF9125CE9EFB501032F
:10682500D20122C204900069E090006CF090006AE9
:10683500E01490006DF090006BE00490006EF0A302
:106845007402F0125D09A907C204900069E0900086
:106855006CF090006AE090006DF090006BE09000A5
:106865006EF0A37402F0125D09EF697025C2049001
:106875000069E090006CF090006AE01490006DF003
:1068850090006BE004125D01125CE9EFB50103D2E3
:106895000122C204900069E090006CF090006AE06B
:1068A5001490006DF090006BE0240290006EF0A350
:1068B5007402F0125D09A907C204900069E0900016
:1068C5006CF090006AE090006DF090006BE0900035
:1068D5006EF0A37402F0125D09EF697026C2049090
:1068E5000069E090006CF090006AE01490006DF093
:1068F50090006BE02402125D01125CE9EFB5010323
:10690500D20122C204900069E090006CF090006A08
:10691500E01490006DF090006BE024FE90006EF0A6
:10692500A37402F0125D09A907C204900069E09002
:10693500006CF090006AE090006DF090006BE090C4
:10694500006EF0A37402F0125D09EF697026C204AF
:10695500900069E090006CF090006AE01490006D82
:10696500F090006BE024FE125D01125CE9EFB501C9
:1069750003D20122C204900069E090006CF09000FF
:106985006AE01490006DF090006BE01490006EF0DA
:10699500A37402F0125D09A907C204900069E09092
:1069A500006CF090006AE090006DF090006BE09054
:1069B500006EF0A37402F0125D09EF697025C20440
:1069C500900069E090006CF090006AE01490006D12
:1069D500F090006BE014125D01125CE9EFB5010364
:0669E500D20122C20122D2
:10562C00E4900068F01267C590004DE0FF7E007CAE
:10563C00007D0A1266FFEC60030256CBED12679FE9
:10564C00566E00567601567E02568603568E0456CA
:10565C009605569E0656A60756AE0856B609000085
:10566C0056CB7BFF7A02794380467BFF7A027945E1
:10567C00803E7BFF7A02794880367BFF7A02794B39
:10568C00802E7BFF7A02794E80267BFF7A0279513D
:10569C00801E7BFF7A02795480167BFF7A02795741
:1056AC00800E7BFF7A02795A80067BFF7A02795D45
:1056BC0090007A1267967B03E4FD7FB912941E7FEB
:1056CC00507E00129C3890004DE0FF7E007C007DE7
:1056DC000C1266FFEC600302577FED12679F5712A6
:1056EC0000571A01572202572A03573204573A051A
:1056FC00574206574A07575208575A0957620A57D2
:10570C006A0B0000577F7BFF7A02796080567BFF23
:10571C007A027963804E7BFF7A02796680467BFF42
:10572C007A027969803E7BFF7A02796C80367BFF46
:10573C007A02796F802E7BFF7A02797280267BFF4A
:10574C007A027975801E7BFF7A02797880167BFF4E
:10575C007A02797B800E7BFF7A02797E80067BFF52
:10576C007A02798190007A1267967B05E4FD7FB905
:10577C0012941E7F647E00129C387BFF7A0279841F
:10578C0090007A1267967B07E4FD7FB912941E7F16
:10579C00647E00129C387BFF3001067A0279878088
:1057AC00047A02798A90007A1267967B0AE4FD7F6C
:1057BC00B912941E7F647E00129C38C2049000477C
:1057CC00E090006CF0900048E090006DF090004983
:1057DC00E090006EF0E4A3F0125D0990004EE0FF43
:1057EC00E4600302588BEF12679F581E0158260283
:1057FC00582E03583604583E05584606584E07583E
:10580C005608585E0958660A586E0B58760C0000FC
:10581C00588B7BFF7A02798D80567BFF7A027990C8
:10582C00804E7BFF7A02799380467BFF7A027995D2
:10583C00803E7BFF7A02799880367BFF7A02799BD7
:10584C00802E7BFF7A02799E80267BFF7A0279A1DB
:10585C00801E7BFF7A0279A480167BFF7A0279A7DF
:10586C00800E7BFF7A0279AA80067BFF7A0279ADE3
:10587C0090007A1267967B0CE4FD7FB912941E7F20
:10588C00647E00129C387BFF7A0279B090007A1209
:10589C0067967B0EE4FD7FB912941E7F507E00123A
:1058AC009C3890004FE0FF7E007C007D0A1266FF62
:1058BC00EE703BEF14601214601714601C2403701C
:1058CC002D7BFF7A0279B380167BFF7A0279A78051
:1058DC000E7BFF7A0279B680067BFF7A0279939071
:1058EC00007A1267967B10E4FD7FB912941E7F64D8
:1058FC007E00129C3890004FE0640A70157BFF7A92
:10590C000279B390007A1267967B10E4FD7FB9128E
:10591C00941E7F647E00129C3890004FE0FF7E0046
:10592C007C007D0A1266FFEC60030259BCED126725
:10593C009F59A700595F01596702596F03597704A2
:10594C00597F05598706598F07599708599F0900A0
:10595C000059BC7BFF7A02798D80467BFF7A0279F5
:10596C0090803E7BFF7A02799380367BFF7A0279B6
:10597C0095802E7BFF7A02799880267BFF7A0279BC
:10598C009B801E7BFF7A02799E80167BFF7A0279C0
:10599C00A1800E7BFF7A0279A480067BFF7A0279C4
:1059AC00A790007A1267967B12E4FD7FB912941EC1
:0759BC007F647E00029C38AD
:109C64007A00796E127AFF90007A1267967B0FE47D
:069C7400FD7FB902941E01
:1089E600900071E0FF7E00900074EEF0A3EFF07C43
:1089F600007D0A1266FFEF7806C333CE33CED8F970
:108A06002475F9740E3EFA7BFF90007B12679690F0
:108A160000797402F0A37420F0E4FB7D117FFD124F
:108A2600897C9000797402F0A37420F0900074E0C1
:108A3600FEA3E0FF7C007D0A1266FFEDAE04780619
:108A4600C333CE33CED8F92475F9740E3EFA7BFFC4
:0F8A560090007B1267967B107D117FFD02897C5B
:108E8900900072E0FF7E00900074EEF0A3EFF07C9A
:108E9900007D0A1266FFEF7806C333CE33CED8F9C8
:108EA90012895D9000797402F0A37420F090007427
:108EB900E0FEA3E0FF7C007D0A1266FFEDAE0478B8
:108EC90006C333CE33CED8F92475F9740E3EFA7B36
:108ED900FF90007B1267967B407D117FFD02897CA4
:108AE200900073E0FF7E00A3EEF0A3EFF07C007D28
:108AF2000A1266FFEF7806C333CE33CED8F9247557
:108B0200F9740E3EFA7BFF90007B12679690007913
:108B12007402F0A37420F07B607D117FFD12897CCA
:108B22009000797402F0A37420F0900074E0FEA328
:108B3200E0FF7C007D0A1266FFEDAE047806C333C7
:108B4200CE33CED8F92475F9740E3EFA7BFF90002D
:0D8B52007B1267967B707D117FFD02897C90
:108296007A0079681293517BFF7A00792A90007AE6
:1082A6001267967B07E4FD7FB912941E7A007968FF
:1082B6001295857BFF7A00792A90007A1267967B61
:1082C6000AE4FD7FB912941E7A0079681295B67891
:1082D6006E7C007D017B017A0079687E007F061244
:1082E60065F8129C64786E7C007D017B017A0079CA
:1082F600687E007F061265F81289E690007974029E
:10830600F0A37420F07BFF7A1079F5A31267967BB1
:10831600207D117FFD12897C786E7C007D017B01BA
:108326007A0079687E007F061265F8128E899000C1
:10833600797402F0A37420F07BFF7A1079F5A3120A
:1083460067967B507D117FFD12897C786E7C007D5F
:10835600017B017A0079687E007F061265F8028A41
:01836600E234
:077F2C00900068EDF0AC07C6
:107F3300E4FF90006CF0A3F0EC30E7170FF4FC9033
:107F43000068E0540FFEF0C374109EFEF0BE1003F1
:107F53000CE4F0EF7BFFB401067A00792680047A03
:107F630000792890007A1267967B0E12941A129A5F
:107F730097AF041296789000691267969000691281
:107F8300677690007A1267967B0F12941A129A976B
:107F93007BFF7A00792A90007A1267967B111294FC
:107FA3001A129A97900068E0FF7E0090006CEEF042
:107FB300A3EFF07C027D711266EDEF24F4FFEE3443
:107FC30001FE90006CF0A3EFF07C007D641266FF6D
:107FD30090006CEEF0A3EFF01296789000691267B0
:107FE30096900001E41266CB9000691267769000C8
:107FF3007A1267967B1212941A7BFF7A00792C907F
:0C800300007A1267967B137FB902941E6E
:109CA5007BFF7A0279B990007A1267967B017D0471
:059CB5007FB902941EBE
:10993F007FC71298E5E4FF1298E57F301298E57F14
:10994F00061298E57F021298E51298E57F0C0298AF
:01995F00E522
:109960007FC81298E5E4FF1298E57F301298E57FF2
:10997000061298E57F021298E51298E57F0C02988E
:01998000E501
:109981007FC81298E57F011298E57F301298E57F34
:10999100061298E57F021298E51298E57F0C02986D
:0199A100E5E0
:1080EA00EF12679F810700812201813C02815603BA
:1080FA00816F0481890581A306000081C37D037F06
:10810A000B129CE17FD51298E57F531298E57F7593
